{
  "contractName": "voting",
  "abi": [
    {
      "inputs": [],
      "payable": false,
      "stateMutability": "nonpayable",
      "type": "constructor",
      "signature": "constructor"
    },
    {
      "constant": true,
      "inputs": [],
      "name": "contestantsCount",
      "outputs": [
        {
          "internalType": "uint256",
          "name": "",
          "type": "uint256"
        }
      ],
      "payable": false,
      "stateMutability": "view",
      "type": "function",
      "signature": "0xec63d1c8"
    },
    {
      "constant": true,
      "inputs": [
        {
          "internalType": "uint256",
          "name": "",
          "type": "uint256"
        }
      ],
      "name": "mapforcontestant",
      "outputs": [
        {
          "internalType": "uint256",
          "name": "Candidate_id",
          "type": "uint256"
        },
        {
          "internalType": "string",
          "name": "Candidate_name",
          "type": "string"
        },
        {
          "internalType": "uint256",
          "name": "totalvote",
          "type": "uint256"
        },
        {
          "internalType": "string",
          "name": "party_name",
          "type": "string"
        },
        {
          "internalType": "uint256",
          "name": "Candidate_age",
          "type": "uint256"
        },
        {
          "internalType": "string",
          "name": "qualificationofcandidate",
          "type": "string"
        }
      ],
      "payable": false,
      "stateMutability": "view",
      "type": "function",
      "signature": "0x80691c75"
    },
    {
      "constant": true,
      "inputs": [
        {
          "internalType": "address",
          "name": "",
          "type": "address"
        }
      ],
      "name": "mapforvoter",
      "outputs": [
        {
          "internalType": "bool",
          "name": "alreadyvoted",
          "type": "bool"
        },
        {
          "internalType": "uint256",
          "name": "vote",
          "type": "uint256"
        },
        {
          "internalType": "bool",
          "name": "alreadyRegistered",
          "type": "bool"
        }
      ],
      "payable": false,
      "stateMutability": "view",
      "type": "function",
      "signature": "0xb70ab4dc"
    },
    {
      "constant": true,
      "inputs": [],
      "name": "stateoption",
      "outputs": [
        {
          "internalType": "enum voting.PHASEoption",
          "name": "",
          "type": "uint8"
        }
      ],
      "payable": false,
      "stateMutability": "view",
      "type": "function",
      "signature": "0x52d077bb"
    },
    {
      "constant": true,
      "inputs": [],
      "name": "sumofallvoter",
      "outputs": [
        {
          "internalType": "uint256",
          "name": "",
          "type": "uint256"
        }
      ],
      "payable": false,
      "stateMutability": "view",
      "type": "function",
      "signature": "0xf807b7b2"
    },
    {
      "constant": false,
      "inputs": [
        {
          "internalType": "enum voting.PHASEoption",
          "name": "x",
          "type": "uint8"
        }
      ],
      "name": "changeState",
      "outputs": [],
      "payable": false,
      "stateMutability": "nonpayable",
      "type": "function",
      "signature": "0x268f1153"
    },
    {
      "constant": false,
      "inputs": [
        {
          "internalType": "string",
          "name": "_name",
          "type": "string"
        },
        {
          "internalType": "string",
          "name": "_party",
          "type": "string"
        },
        {
          "internalType": "uint256",
          "name": "_age",
          "type": "uint256"
        },
        {
          "internalType": "string",
          "name": "_qualification",
          "type": "string"
        }
      ],
      "name": "Newcontestant",
      "outputs": [],
      "payable": false,
      "stateMutability": "nonpayable",
      "type": "function",
      "signature": "0x3737f026"
    },
    {
      "constant": false,
      "inputs": [
        {
          "internalType": "address",
          "name": "user",
          "type": "address"
        }
      ],
      "name": "RegisterNewvoter",
      "outputs": [
        {
          "internalType": "uint256",
          "name": "",
          "type": "uint256"
        }
      ],
      "payable": false,
      "stateMutability": "nonpayable",
      "type": "function",
      "signature": "0xdbd16110"
    },
    {
      "constant": false,
      "inputs": [
        {
          "internalType": "uint256",
          "name": "_contestantId",
          "type": "uint256"
        }
      ],
      "name": "dovote",
      "outputs": [],
      "payable": false,
      "stateMutability": "nonpayable",
      "type": "function",
      "signature": "0x69603017"
    }
  ],
  "bytecode": "0x60806040527377d66e0103a64767b67f6246e83a839e0f5e042f6000806101000a81548173ffffffffffffffffffffffffffffffffffffffff021916908373ffffffffffffffffffffffffffffffffffffffff16021790555034801561006457600080fd5b50336000806101000a81548173ffffffffffffffffffffffffffffffffffffffff021916908373ffffffffffffffffffffffffffffffffffffffff1602179055506000600560006101000a81548160ff021916908360028111156100c457fe5b0217905550610dee806100d86000396000f3fe608060405234801561001057600080fd5b50600436106100b0576000357c01000000000000000000000000000000000000000000000000000000009004806380691c751161008357806380691c7514610333578063b70ab4dc146104c7578063dbd1611014610535578063ec63d1c81461058d578063f807b7b2146105ab576100b0565b8063268f1153146100b55780633737f026146100e657806352d077bb146102d95780636960301714610305575b600080fd5b6100e4600480360360208110156100cb57600080fd5b81019080803560ff1690602001909291905050506105c9565b005b6102d7600480360360808110156100fc57600080fd5b810190808035906020019064010000000081111561011957600080fd5b82018360208201111561012b57600080fd5b8035906020019184600183028401116401000000008311171561014d57600080fd5b91908080601f016020809104026020016040519081016040528093929190818152602001838380828437600081840152601f19601f820116905080830192505050505050509192919290803590602001906401000000008111156101b057600080fd5b8201836020820111156101c257600080fd5b803590602001918460018302840111640100000000831117156101e457600080fd5b91908080601f016020809104026020016040519081016040528093929190818152602001838380828437600081840152601f19601f820116905080830192505050505050509192919290803590602001909291908035906020019064010000000081111561025157600080fd5b82018360208201111561026357600080fd5b8035906020019184600183028401116401000000008311171561028557600080fd5b91908080601f016020809104026020016040519081016040528093929190818152602001838380828437600081840152601f19601f820116905080830192505050505050509192919290505050610679565b005b6102e16107db565b604051808260028111156102f157fe5b60ff16815260200191505060405180910390f35b6103316004803603602081101561031b57600080fd5b81019080803590602001909291905050506107ee565b005b61035f6004803603602081101561034957600080fd5b81019080803590602001909291905050506109cd565b60405180878152602001806020018681526020018060200185815260200180602001848103845289818151815260200191508051906020019080838360005b838110156103b957808201518184015260208101905061039e565b50505050905090810190601f1680156103e65780820380516001836020036101000a031916815260200191505b50848103835287818151815260200191508051906020019080838360005b8381101561041f578082015181840152602081019050610404565b50505050905090810190601f16801561044c5780820380516001836020036101000a031916815260200191505b50848103825285818151815260200191508051906020019080838360005b8381101561048557808201518184015260208101905061046a565b50505050905090810190601f1680156104b25780820380516001836020036101000a031916815260200191505b50995050505050505050505060405180910390f35b610509600480360360208110156104dd57600080fd5b81019080803573ffffffffffffffffffffffffffffffffffffffff169060200190929190505050610bd1565b604051808415151515815260200183815260200182151515158152602001935050505060405180910390f35b6105776004803603602081101561054b57600080fd5b81019080803573ffffffffffffffffffffffffffffffffffffffff169060200190929190505050610c15565b6040518082815260200191505060405180910390f35b610595610d08565b6040518082815260200191505060405180910390f35b6105b3610d0e565b6040518082815260200191505060405180910390f35b6000809054906101000a900473ffffffffffffffffffffffffffffffffffffffff1673ffffffffffffffffffffffffffffffffffffffff163373ffffffffffffffffffffffffffffffffffffffff161461062257600080fd5b600560009054906101000a900460ff16600281111561063d57fe5b81600281111561064957fe5b1161065357600080fd5b80600560006101000a81548160ff0219169083600281111561067157fe5b021790555050565b6000809054906101000a900473ffffffffffffffffffffffffffffffffffffffff1673ffffffffffffffffffffffffffffffffffffffff163373ffffffffffffffffffffffffffffffffffffffff16146106d257600080fd5b60008060028111156106e057fe5b600560009054906101000a900460ff1660028111156106fb57fe5b1461070557600080fd5b6003600081548092919060010191905055506040518060c0016040528060035481526020018681526020016000815260200185815260200184815260200183815250600160006003548152602001908152602001600020600082015181600001556020820151816001019080519060200190610782929190610d14565b506040820151816002015560608201518160030190805190602001906107a9929190610d14565b506080820151816004015560a08201518160050190805190602001906107d0929190610d14565b509050505050505050565b600560009054906101000a900460ff1681565b60018060028111156107fc57fe5b600560009054906101000a900460ff16600281111561081757fe5b1461082157600080fd5b600260003373ffffffffffffffffffffffffffffffffffffffff1673ffffffffffffffffffffffffffffffffffffffff16815260200190815260200160002060020160009054906101000a900460ff1661087a57600080fd5b600260003373ffffffffffffffffffffffffffffffffffffffff1673ffffffffffffffffffffffffffffffffffffffff16815260200190815260200160002060000160009054906101000a900460ff16156108d457600080fd5b6000821180156108e657506003548211155b6108ef57600080fd5b60016000838152602001908152602001600020600201600081548092919060010191905055506004600081548092919060010191905055506001600260003373ffffffffffffffffffffffffffffffffffffffff1673ffffffffffffffffffffffffffffffffffffffff16815260200190815260200160002060000160006101000a81548160ff02191690831515021790555081600260003373ffffffffffffffffffffffffffffffffffffffff1673ffffffffffffffffffffffffffffffffffffffff168152602001908152602001600020600101819055505050565b6001602052806000526040600020600091509050806000015490806001018054600181600116156101000203166002900480601f016020809104026020016040519081016040528092919081815260200182805460018160011615610100020316600290048015610a7f5780601f10610a5457610100808354040283529160200191610a7f565b820191906000526020600020905b815481529060010190602001808311610a6257829003601f168201915b505050505090806002015490806003018054600181600116156101000203166002900480601f016020809104026020016040519081016040528092919081815260200182805460018160011615610100020316600290048015610b235780601f10610af857610100808354040283529160200191610b23565b820191906000526020600020905b815481529060010190602001808311610b0657829003601f168201915b505050505090806004015490806005018054600181600116156101000203166002900480601f016020809104026020016040519081016040528092919081815260200182805460018160011615610100020316600290048015610bc75780601f10610b9c57610100808354040283529160200191610bc7565b820191906000526020600020905b815481529060010190602001808311610baa57829003601f168201915b5050505050905086565b60026020528060005260406000206000915090508060000160009054906101000a900460ff16908060010154908060020160009054906101000a900460ff16905083565b60008060009054906101000a900473ffffffffffffffffffffffffffffffffffffffff1673ffffffffffffffffffffffffffffffffffffffff163373ffffffffffffffffffffffffffffffffffffffff1614610c7057600080fd5b6000806002811115610c7e57fe5b600560009054906101000a900460ff166002811115610c9957fe5b14610ca357600080fd5b6001600260008573ffffffffffffffffffffffffffffffffffffffff1673ffffffffffffffffffffffffffffffffffffffff16815260200190815260200160002060020160006101000a81548160ff0219169083151502179055506001915050919050565b60035481565b60045481565b828054600181600116156101000203166002900490600052602060002090601f016020900481019282601f10610d5557805160ff1916838001178555610d83565b82800160010185558215610d83579182015b82811115610d82578251825591602001919060010190610d67565b5b509050610d909190610d94565b5090565b610db691905b80821115610db2576000816000905550600101610d9a565b5090565b9056fea265627a7a7231582078f0128442b167a517865993c71dd285abad25e122f6c465489596abbff0eb8564736f6c63430005100032",
  "source": "// SPDX-License-Identifier: MIT\npragma solidity >=0.5.16;\n\ncontract voting{\n\t\n\tstruct candidate_details{\n\t\tuint Candidate_id;\n\t\tstring Candidate_name;\n\t\tuint totalvote;\n\t\tstring party_name;\n\t\tuint Candidate_age;\n\t\tstring qualificationofcandidate;\n\t}\n\n\tstruct voter_details{\n\t\tbool alreadyvoted;\n\t\tuint vote;\n\t\tbool alreadyRegistered;\n\t}\n\n\taddress admintxid=0x77d66E0103a64767b67f6246E83A839E0F5e042f;\n\tmapping(uint => candidate_details) public mapforcontestant; \n   \n    mapping(address => voter_details) public mapforvoter;\n\tuint public contestantsCount;\n\tuint public sumofallvoter;\n\n\tenum PHASEoption{registerphase, votingphase , votingover}\n\tPHASEoption public stateoption;\n\n\tmodifier Adminpermission(){\n\t\trequire(msg.sender==admintxid);\n\t\t_;\n\t}\n\t\n\tmodifier checkforstate(PHASEoption x){\n\t    require(stateoption==x);\n\t    _;\n\t}\n\n\tconstructor() public{\n\t\tadmintxid=msg.sender;\n        stateoption=PHASEoption.registerphase;\n\t}\n\t//function for changing a state (registeration phase, voting phase, voting end)\n    function changeState(PHASEoption x) Adminpermission public{\n\t\trequire(x > stateoption);\n        stateoption = x;\n    }\n\t//function for adding new contestant\n\tfunction Newcontestant(string memory _name , string memory _party , uint _age , string memory _qualification) public Adminpermission checkforstate(PHASEoption.registerphase){\n\t\tcontestantsCount++;\n\t\tmapforcontestant[contestantsCount]=candidate_details(contestantsCount,_name,0,_party,_age,_qualification);\n\t\t\n\t}\n\t// when admin verify voter via trasantion id\n\tfunction RegisterNewvoter(address user) public Adminpermission checkforstate(PHASEoption.registerphase) returns(uint){\n\t\tmapforvoter[user].alreadyRegistered=true;\n\t\treturn 1;\n\t\t\n\t}\n\t//function for voting process\n\tfunction dovote(uint _contestantId) public checkforstate(PHASEoption.votingphase){\n        //this checks voter is verified by admin or not\n\t\trequire(mapforvoter[msg.sender].alreadyRegistered);\n\t\t//this condition checks voter already voted or not \n\t\trequire(!mapforvoter[msg.sender].alreadyvoted);\n\n        require(_contestantId > 0 && _contestantId<=contestantsCount);\n\t\t//give a vote to candidate\n\t\tmapforcontestant[_contestantId].totalvote++;\n\t\tsumofallvoter++;\n\t\t//when you do voting this will put true in front of your transaction id\n\t\tmapforvoter[msg.sender].alreadyvoted=true;\n\n\t\tmapforvoter[msg.sender].vote=_contestantId;\n\t}\n}",
  "sourcePath": "/Users/yashdethaliya/Desktop/202001193_blockchainbasedonlinevotingsystem_Sourcecode/contracts/voting.sol",
  "compiler": {
    "name": "solc",
    "version": "0.5.16+commit.9c3226ce.Emscripten.clang"
  },
  "schemaVersion": "3.0.1",
  "updatedAt": "2023-05-01T19:06:03.743Z",
  "devdoc": {
    "methods": {}
  },
  "userdoc": {
    "methods": {}
  }
}